{
  "contractName": "SupplyChain",
  "abi": [
    {
      "constant": true,
      "inputs": [
        {
          "name": "",
          "type": "uint256"
        }
      ],
      "name": "orders",
      "outputs": [
        {
          "name": "title",
          "type": "string"
        },
        {
          "name": "description",
          "type": "string"
        },
        {
          "name": "supplier",
          "type": "address"
        },
        {
          "name": "deliveryCompany",
          "type": "address"
        },
        {
          "name": "customer",
          "type": "address"
        },
        {
          "name": "status",
          "type": "uint8"
        }
      ],
      "payable": false,
      "stateMutability": "view",
      "type": "function",
      "signature": "0xa85c38ef"
    },
    {
      "constant": true,
      "inputs": [
        {
          "name": "",
          "type": "address"
        },
        {
          "name": "",
          "type": "uint256"
        }
      ],
      "name": "selfOrders",
      "outputs": [
        {
          "name": "",
          "type": "uint256"
        }
      ],
      "payable": false,
      "stateMutability": "view",
      "type": "function",
      "signature": "0xa9d1af88"
    },
    {
      "anonymous": false,
      "inputs": [
        {
          "indexed": false,
          "name": "index",
          "type": "uint256"
        },
        {
          "indexed": true,
          "name": "deliveryCompany",
          "type": "address"
        },
        {
          "indexed": true,
          "name": "customer",
          "type": "address"
        }
      ],
      "name": "OrderCreated",
      "type": "event",
      "signature": "0xd4e0aaf5be9b8773c644dfebba8b63f878965712ad8589d85ca4bc9d1b671e2c"
    },
    {
      "anonymous": false,
      "inputs": [
        {
          "indexed": false,
          "name": "index",
          "type": "uint256"
        },
        {
          "indexed": true,
          "name": "supplier",
          "type": "address"
        },
        {
          "indexed": true,
          "name": "customer",
          "type": "address"
        }
      ],
      "name": "OrderDelivering",
      "type": "event",
      "signature": "0x8f3a13f55e685e5c9e7796435daa54d081fdc930d7079309a7b178fc4fb3cc2f"
    },
    {
      "anonymous": false,
      "inputs": [
        {
          "indexed": false,
          "name": "index",
          "type": "uint256"
        },
        {
          "indexed": true,
          "name": "supplier",
          "type": "address"
        },
        {
          "indexed": true,
          "name": "customer",
          "type": "address"
        }
      ],
      "name": "OrderDelivered",
      "type": "event",
      "signature": "0xdc1e5c46473f967c85111ae5c5574dd672193f524398a75ee01ff59586c224a6"
    },
    {
      "anonymous": false,
      "inputs": [
        {
          "indexed": false,
          "name": "index",
          "type": "uint256"
        },
        {
          "indexed": true,
          "name": "supplier",
          "type": "address"
        },
        {
          "indexed": true,
          "name": "deliveryCompany",
          "type": "address"
        }
      ],
      "name": "OrderAccepted",
      "type": "event",
      "signature": "0x8ae2f67332c70e85a9bd2dc029a84b58b0e0b37eed94bb01fe19283e259f8592"
    },
    {
      "anonymous": false,
      "inputs": [
        {
          "indexed": false,
          "name": "index",
          "type": "uint256"
        },
        {
          "indexed": true,
          "name": "supplier",
          "type": "address"
        },
        {
          "indexed": true,
          "name": "deliveryCompany",
          "type": "address"
        }
      ],
      "name": "OrderDeclined",
      "type": "event",
      "signature": "0xb8233a4535381de2b5df1795d3af5bfec3ce5afc185a31949f27b49938cb2321"
    },
    {
      "constant": true,
      "inputs": [],
      "name": "getOrdersLenght",
      "outputs": [
        {
          "name": "",
          "type": "uint256"
        }
      ],
      "payable": false,
      "stateMutability": "view",
      "type": "function",
      "signature": "0xb845e3fc"
    },
    {
      "constant": true,
      "inputs": [
        {
          "name": "_address",
          "type": "address"
        }
      ],
      "name": "getSelfOrdersLenght",
      "outputs": [
        {
          "name": "",
          "type": "uint256"
        }
      ],
      "payable": false,
      "stateMutability": "view",
      "type": "function",
      "signature": "0x7e2b411a"
    },
    {
      "constant": true,
      "inputs": [
        {
          "name": "_index",
          "type": "uint256"
        }
      ],
      "name": "getOrder",
      "outputs": [
        {
          "name": "",
          "type": "string"
        },
        {
          "name": "",
          "type": "string"
        },
        {
          "name": "",
          "type": "address"
        },
        {
          "name": "",
          "type": "address"
        },
        {
          "name": "",
          "type": "address"
        },
        {
          "name": "",
          "type": "uint8"
        }
      ],
      "payable": false,
      "stateMutability": "view",
      "type": "function",
      "signature": "0xd09ef241"
    },
    {
      "constant": false,
      "inputs": [
        {
          "name": "_title",
          "type": "string"
        },
        {
          "name": "_description",
          "type": "string"
        },
        {
          "name": "_deliveryCompany",
          "type": "address"
        },
        {
          "name": "_customer",
          "type": "address"
        }
      ],
      "name": "craeteOrder",
      "outputs": [],
      "payable": false,
      "stateMutability": "nonpayable",
      "type": "function",
      "signature": "0x717331f7"
    },
    {
      "constant": false,
      "inputs": [
        {
          "name": "_index",
          "type": "uint256"
        }
      ],
      "name": "startDeliveringOrder",
      "outputs": [],
      "payable": false,
      "stateMutability": "nonpayable",
      "type": "function",
      "signature": "0x84e9d538"
    },
    {
      "constant": false,
      "inputs": [
        {
          "name": "_index",
          "type": "uint256"
        }
      ],
      "name": "stopDeliveringOrder",
      "outputs": [],
      "payable": false,
      "stateMutability": "nonpayable",
      "type": "function",
      "signature": "0x6c484042"
    },
    {
      "constant": false,
      "inputs": [
        {
          "name": "_index",
          "type": "uint256"
        }
      ],
      "name": "acceptOrder",
      "outputs": [],
      "payable": false,
      "stateMutability": "nonpayable",
      "type": "function",
      "signature": "0xef18e9ed"
    },
    {
      "constant": false,
      "inputs": [
        {
          "name": "_index",
          "type": "uint256"
        }
      ],
      "name": "rejectOrder",
      "outputs": [],
      "payable": false,
      "stateMutability": "nonpayable",
      "type": "function",
      "signature": "0x24f63894"
    }
  ],
  "bytecode": "0x608060405234801561001057600080fd5b506118d1806100206000396000f3fe6080604052600436106100a4576000357c0100000000000000000000000000000000000000000000000000000000900463ffffffff16806324f63894146100a95780636c484042146100e4578063717331f71461011f5780637e2b411a146102be57806384e9d53814610323578063a85c38ef1461035e578063a9d1af881461052c578063b845e3fc1461059b578063d09ef241146105c6578063ef18e9ed14610794575b600080fd5b3480156100b557600080fd5b506100e2600480360360208110156100cc57600080fd5b81019080803590602001909291905050506107cf565b005b3480156100f057600080fd5b5061011d6004803603602081101561010757600080fd5b810190808035906020019092919050505061097a565b005b34801561012b57600080fd5b506102bc6004803603608081101561014257600080fd5b810190808035906020019064010000000081111561015f57600080fd5b82018360208201111561017157600080fd5b8035906020019184600183028401116401000000008311171561019357600080fd5b91908080601f016020809104026020016040519081016040528093929190818152602001838380828437600081840152601f19601f820116905080830192505050505050509192919290803590602001906401000000008111156101f657600080fd5b82018360208201111561020857600080fd5b8035906020019184600183028401116401000000008311171561022a57600080fd5b91908080601f016020809104026020016040519081016040528093929190818152602001838380828437600081840152601f19601f820116905080830192505050505050509192919290803573ffffffffffffffffffffffffffffffffffffffff169060200190929190803573ffffffffffffffffffffffffffffffffffffffff169060200190929190505050610b25565b005b3480156102ca57600080fd5b5061030d600480360360208110156102e157600080fd5b81019080803573ffffffffffffffffffffffffffffffffffffffff169060200190929190505050610ecd565b6040518082815260200191505060405180910390f35b34801561032f57600080fd5b5061035c6004803603602081101561034657600080fd5b8101908080359060200190929190505050610f19565b005b34801561036a57600080fd5b506103976004803603602081101561038157600080fd5b81019080803590602001909291905050506110c4565b6040518080602001806020018773ffffffffffffffffffffffffffffffffffffffff1673ffffffffffffffffffffffffffffffffffffffff1681526020018673ffffffffffffffffffffffffffffffffffffffff1673ffffffffffffffffffffffffffffffffffffffff1681526020018573ffffffffffffffffffffffffffffffffffffffff1673ffffffffffffffffffffffffffffffffffffffff16815260200184600481111561044557fe5b60ff168152602001838103835289818151815260200191508051906020019080838360005b8381101561048557808201518184015260208101905061046a565b50505050905090810190601f1680156104b25780820380516001836020036101000a031916815260200191505b50838103825288818151815260200191508051906020019080838360005b838110156104eb5780820151818401526020810190506104d0565b50505050905090810190601f1680156105185780820380516001836020036101000a031916815260200191505b509850505050505050505060405180910390f35b34801561053857600080fd5b506105856004803603604081101561054f57600080fd5b81019080803573ffffffffffffffffffffffffffffffffffffffff169060200190929190803590602001909291905050506112ac565b6040518082815260200191505060405180910390f35b3480156105a757600080fd5b506105b06112dc565b6040518082815260200191505060405180910390f35b3480156105d257600080fd5b506105ff600480360360208110156105e957600080fd5b81019080803590602001909291905050506112e8565b6040518080602001806020018773ffffffffffffffffffffffffffffffffffffffff1673ffffffffffffffffffffffffffffffffffffffff1681526020018673ffffffffffffffffffffffffffffffffffffffff1673ffffffffffffffffffffffffffffffffffffffff1681526020018573ffffffffffffffffffffffffffffffffffffffff1673ffffffffffffffffffffffffffffffffffffffff1681526020018460048111156106ad57fe5b60ff168152602001838103835289818151815260200191508051906020019080838360005b838110156106ed5780820151818401526020810190506106d2565b50505050905090810190601f16801561071a5780820380516001836020036101000a031916815260200191505b50838103825288818151815260200191508051906020019080838360005b83811015610753578082015181840152602081019050610738565b50505050905090810190601f1680156107805780820380516001836020036101000a031916815260200191505b509850505050505050505060405180910390f35b3480156107a057600080fd5b506107cd600480360360208110156107b757600080fd5b81019080803590602001909291905050506115d1565b005b803373ffffffffffffffffffffffffffffffffffffffff166000828154811015156107f657fe5b906000526020600020906005020160040160009054906101000a900473ffffffffffffffffffffffffffffffffffffffff1673ffffffffffffffffffffffffffffffffffffffff1614151561084a57600080fd5b6000808381548110151561085a57fe5b906000526020600020906005020190508060030160009054906101000a900473ffffffffffffffffffffffffffffffffffffffff1673ffffffffffffffffffffffffffffffffffffffff168160020160009054906101000a900473ffffffffffffffffffffffffffffffffffffffff1673ffffffffffffffffffffffffffffffffffffffff167fb8233a4535381de2b5df1795d3af5bfec3ce5afc185a31949f27b49938cb2321856040518082815260200191505060405180910390a36002600481111561092457fe5b8160040160149054906101000a900460ff16600481111561094157fe5b14151561094e5750610976565b60048160040160146101000a81548160ff0219169083600481111561096f57fe5b0217905550505b5050565b803373ffffffffffffffffffffffffffffffffffffffff166000828154811015156109a157fe5b906000526020600020906005020160030160009054906101000a900473ffffffffffffffffffffffffffffffffffffffff1673ffffffffffffffffffffffffffffffffffffffff161415156109f557600080fd5b60008083815481101515610a0557fe5b9060005260206000209060050201905060016004811115610a2257fe5b8160040160149054906101000a900460ff166004811115610a3f57fe5b141515610a4c5750610b21565b8060040160009054906101000a900473ffffffffffffffffffffffffffffffffffffffff1673ffffffffffffffffffffffffffffffffffffffff168160020160009054906101000a900473ffffffffffffffffffffffffffffffffffffffff1673ffffffffffffffffffffffffffffffffffffffff167fdc1e5c46473f967c85111ae5c5574dd672193f524398a75ee01ff59586c224a6856040518082815260200191505060405180910390a360028160040160146101000a81548160ff02191690836004811115610b1a57fe5b0217905550505b5050565b610b2d61177c565b60c0604051908101604052808681526020018581526020013373ffffffffffffffffffffffffffffffffffffffff1681526020018473ffffffffffffffffffffffffffffffffffffffff1681526020018373ffffffffffffffffffffffffffffffffffffffff16815260200160006004811115610ba657fe5b8152509050600080805490509050816080015173ffffffffffffffffffffffffffffffffffffffff16826060015173ffffffffffffffffffffffffffffffffffffffff167fd4e0aaf5be9b8773c644dfebba8b63f878965712ad8589d85ca4bc9d1b671e2c836040518082815260200191505060405180910390a3600082908060018154018082558091505090600182039060005260206000209060050201600090919290919091506000820151816000019080519060200190610c6b929190611800565b506020820151816001019080519060200190610c88929190611800565b5060408201518160020160006101000a81548173ffffffffffffffffffffffffffffffffffffffff021916908373ffffffffffffffffffffffffffffffffffffffff16021790555060608201518160030160006101000a81548173ffffffffffffffffffffffffffffffffffffffff021916908373ffffffffffffffffffffffffffffffffffffffff16021790555060808201518160040160006101000a81548173ffffffffffffffffffffffffffffffffffffffff021916908373ffffffffffffffffffffffffffffffffffffffff16021790555060a08201518160040160146101000a81548160ff02191690836004811115610d8257fe5b0217905550505050600160003373ffffffffffffffffffffffffffffffffffffffff1673ffffffffffffffffffffffffffffffffffffffff168152602001908152602001600020819080600181540180825580915050906001820390600052602060002001600090919290919091505550600160008573ffffffffffffffffffffffffffffffffffffffff1673ffffffffffffffffffffffffffffffffffffffff168152602001908152602001600020819080600181540180825580915050906001820390600052602060002001600090919290919091505550600160008473ffffffffffffffffffffffffffffffffffffffff1673ffffffffffffffffffffffffffffffffffffffff168152602001908152602001600020819080600181540180825580915050906001820390600052602060002001600090919290919091505550505050505050565b6000600160008373ffffffffffffffffffffffffffffffffffffffff1673ffffffffffffffffffffffffffffffffffffffff168152602001908152602001600020805490509050919050565b803373ffffffffffffffffffffffffffffffffffffffff16600082815481101515610f4057fe5b906000526020600020906005020160030160009054906101000a900473ffffffffffffffffffffffffffffffffffffffff1673ffffffffffffffffffffffffffffffffffffffff16141515610f9457600080fd5b60008083815481101515610fa457fe5b9060005260206000209060050201905060006004811115610fc157fe5b8160040160149054906101000a900460ff166004811115610fde57fe5b141515610feb57506110c0565b8060040160009054906101000a900473ffffffffffffffffffffffffffffffffffffffff1673ffffffffffffffffffffffffffffffffffffffff168160020160009054906101000a900473ffffffffffffffffffffffffffffffffffffffff1673ffffffffffffffffffffffffffffffffffffffff167f8f3a13f55e685e5c9e7796435daa54d081fdc930d7079309a7b178fc4fb3cc2f856040518082815260200191505060405180910390a360018160040160146101000a81548160ff021916908360048111156110b957fe5b0217905550505b5050565b6000818154811015156110d357fe5b9060005260206000209060050201600091509050806000018054600181600116156101000203166002900480601f01602080910402602001604051908101604052809291908181526020018280546001816001161561010002031660029004801561117f5780601f106111545761010080835404028352916020019161117f565b820191906000526020600020905b81548152906001019060200180831161116257829003601f168201915b505050505090806001018054600181600116156101000203166002900480601f01602080910402602001604051908101604052809291908181526020018280546001816001161561010002031660029004801561121d5780601f106111f25761010080835404028352916020019161121d565b820191906000526020600020905b81548152906001019060200180831161120057829003601f168201915b5050505050908060020160009054906101000a900473ffffffffffffffffffffffffffffffffffffffff16908060030160009054906101000a900473ffffffffffffffffffffffffffffffffffffffff16908060040160009054906101000a900473ffffffffffffffffffffffffffffffffffffffff16908060040160149054906101000a900460ff16905086565b6001602052816000526040600020818154811015156112c757fe5b90600052602060002001600091509150505481565b60008080549050905090565b6060806000806000806112f961177c565b60008881548110151561130857fe5b906000526020600020906005020160c06040519081016040529081600082018054600181600116156101000203166002900480601f0160208091040260200160405190810160405280929190818152602001828054600181600116156101000203166002900480156113bb5780601f10611390576101008083540402835291602001916113bb565b820191906000526020600020905b81548152906001019060200180831161139e57829003601f168201915b50505050508152602001600182018054600181600116156101000203166002900480601f01602080910402602001604051908101604052809291908181526020018280546001816001161561010002031660029004801561145d5780601f106114325761010080835404028352916020019161145d565b820191906000526020600020905b81548152906001019060200180831161144057829003601f168201915b505050505081526020016002820160009054906101000a900473ffffffffffffffffffffffffffffffffffffffff1673ffffffffffffffffffffffffffffffffffffffff1673ffffffffffffffffffffffffffffffffffffffff1681526020016003820160009054906101000a900473ffffffffffffffffffffffffffffffffffffffff1673ffffffffffffffffffffffffffffffffffffffff1673ffffffffffffffffffffffffffffffffffffffff1681526020016004820160009054906101000a900473ffffffffffffffffffffffffffffffffffffffff1673ffffffffffffffffffffffffffffffffffffffff1673ffffffffffffffffffffffffffffffffffffffff1681526020016004820160149054906101000a900460ff16600481111561158657fe5b600481111561159157fe5b815250509050806000015181602001518260400151836060015184608001518560a001518595508494509650965096509650965096505091939550919395565b803373ffffffffffffffffffffffffffffffffffffffff166000828154811015156115f857fe5b906000526020600020906005020160040160009054906101000a900473ffffffffffffffffffffffffffffffffffffffff1673ffffffffffffffffffffffffffffffffffffffff1614151561164c57600080fd5b6000808381548110151561165c57fe5b906000526020600020906005020190506002600481111561167957fe5b8160040160149054906101000a900460ff16600481111561169657fe5b1415156116a35750611778565b8060030160009054906101000a900473ffffffffffffffffffffffffffffffffffffffff1673ffffffffffffffffffffffffffffffffffffffff168160020160009054906101000a900473ffffffffffffffffffffffffffffffffffffffff1673ffffffffffffffffffffffffffffffffffffffff167f8ae2f67332c70e85a9bd2dc029a84b58b0e0b37eed94bb01fe19283e259f8592856040518082815260200191505060405180910390a360038160040160146101000a81548160ff0219169083600481111561177157fe5b0217905550505b5050565b60c0604051908101604052806060815260200160608152602001600073ffffffffffffffffffffffffffffffffffffffff168152602001600073ffffffffffffffffffffffffffffffffffffffff168152602001600073ffffffffffffffffffffffffffffffffffffffff168152602001600060048111156117fa57fe5b81525090565b828054600181600116156101000203166002900490600052602060002090601f016020900481019282601f1061184157805160ff191683800117855561186f565b8280016001018555821561186f579182015b8281111561186e578251825591602001919060010190611853565b5b50905061187c9190611880565b5090565b6118a291905b8082111561189e576000816000905550600101611886565b5090565b9056fea165627a7a72305820200fed926cda5a5b8ef783dacba5b6d7bf8e6557e45a9054b663581492bd1a090029",
  "source": "pragma solidity ^0.5.0;\n\ncontract SupplyChain {\n    Order[] public orders;\n    mapping(address => uint256[]) public selfOrders;\n    enum Statues {\n        Created,\n        Delivering,\n        Delivered,\n        Accepted,\n        Declined\n    }\n\n    struct Order {\n        string title;\n        string description;\n        address supplier;\n        address deliveryCompany;\n        address customer;\n        Statues status;\n    }\n\n    event OrderCreated(\n        uint256 index,\n        address indexed deliveryCompany,\n        address indexed customer\n    );\n    event OrderDelivering(\n        uint256 index,\n        address indexed supplier,\n        address indexed customer\n    );\n    event OrderDelivered(\n        uint256 index,\n        address indexed supplier,\n        address indexed customer\n    );\n    event OrderAccepted(\n        uint256 index,\n        address indexed supplier,\n        address indexed deliveryCompany\n    );\n    event OrderDeclined(\n        uint256 index,\n        address indexed supplier,\n        address indexed deliveryCompany\n    );\n\n    modifier onlyOrderDeliveryCompany(uint256 _index) {\n        require(orders[_index].deliveryCompany == msg.sender);\n        _;\n    }\n    modifier onlyCustomer(uint256 _index) {\n        require(orders[_index].customer == msg.sender);\n        _;\n    }\n\n    function getOrdersLenght() public view returns (uint256) {\n        return orders.length;\n    }\n    function getSelfOrdersLenght(address _address) public view returns (uint256) {\n        return selfOrders[_address].length;\n    }\n\n    function getOrder(uint256 _index)\n        public\n        view\n        returns (\n            string memory,\n            string memory,\n            address,\n            address,\n            address,\n            Statues\n        )\n    {\n        Order memory order = orders[_index];\n        return (\n            order.title,\n            order.description,\n            order.supplier,\n            order.deliveryCompany,\n            order.customer,\n            order.status\n        );\n    }\n\n    function craeteOrder(\n        string memory _title,\n        string memory _description,\n        address _deliveryCompany,\n        address _customer\n    ) public {\n        Order memory order = Order({\n            title: _title,\n            description: _description,\n            supplier: msg.sender,\n            deliveryCompany: _deliveryCompany,\n            customer: _customer,\n            status: Statues.Created\n        });\n        uint256 index = orders.length;\n        emit OrderCreated(index, order.deliveryCompany, order.customer);\n        orders.push(order);\n        selfOrders[msg.sender].push(index);\n        selfOrders[_deliveryCompany].push(index);\n        selfOrders[_customer].push(index);\n    }\n\n    function startDeliveringOrder(uint256 _index)\n        public\n        onlyOrderDeliveryCompany(_index)\n    {\n        Order storage order = orders[_index];\n        if (order.status != Statues.Created) return;\n        emit OrderDelivering(_index, order.supplier, order.customer);\n        order.status = Statues.Delivering;\n    }\n\n    function stopDeliveringOrder(uint256 _index)\n        public\n        onlyOrderDeliveryCompany(_index)\n    {\n        Order storage order = orders[_index];\n        if (order.status != Statues.Delivering) return;\n        emit OrderDelivered(_index, order.supplier, order.customer);\n        order.status = Statues.Delivered;\n    }\n\n    function acceptOrder(uint256 _index) public onlyCustomer(_index) {\n        Order storage order = orders[_index];\n        if (order.status != Statues.Delivered) return;\n        emit OrderAccepted(_index, order.supplier, order.deliveryCompany);\n        order.status = Statues.Accepted;\n    }\n\n    function rejectOrder(uint256 _index) public onlyCustomer(_index) {\n        Order storage order = orders[_index];\n        emit OrderDeclined(_index, order.supplier, order.deliveryCompany);\n        if (order.status != Statues.Delivered) return;\n        order.status = Statues.Declined;\n    }\n}\n",
  "sourcePath": "C:/Users/hp/Desktop/S5/Projet pour matiere au choix/supp_chain/contracts/SupplyChain.sol",
  "compiler": {
    "name": "solc",
    "version": "0.5.0+commit.1d4f565a.Emscripten.clang"
  },
  "schemaVersion": "3.0.1",
  "updatedAt": "2024-10-27T13:14:57.047Z",
  "devdoc": {
    "methods": {}
  },
  "userdoc": {
    "methods": {}
  }
}